:10400000314000391542200175F335D0085A3F4040
:1040100000000F930724824520012F839F4F6040AB
:104020000011F9233F4000000F9306248245200130
:104030001F83CF430011FA2332D0F000FD3F304000
:104040005E400E4232C2034303433EF25F430E938F
:1040500001204F4E30414F93012432D230410013A2
:10FFE0003E403E403E403E403E403E403E403E4021
:10FFF0003E403E403E403E403E403E403E4000404F
:0400000300004000B9
:00000001FF
